:020000040000FA
:100000000C94DF000C9407010C9407010C94070179
:100010000C9407010C9407010C9407010C94070140
:100020000C9407010C9407010C9407010C94070130
:100030000C9407010C9407010C9407010C94070120
:100040000C94860C0C9407010C94540C0C942E0CFC
:100050000C9407010C9407010C9407010C94070100
:100060000C9407010C94070100407A10F35A00A089
:10007000724E18090010A5D4E80000E87648170071
:1000800000E40B54020000CA9A3B000000E1F505B1
:10009000000080969800000040420F000000A086FB
:1000A00001000000102700000000E803000000002D
:1000B0006400000000000A000000000001000000D1
:1000C00000002C76D888DC674F0823DFC1DFAE59EB
:1000D000E1B1B796E5E3E453C63AE651997696E87E
:1000E000E6C28426EB898C9B62ED407C6FFCEFBC02
:1000F0009C9F40F2BAA56FA5F490055A2AF75C932D
:100100006B6CF9676DC11BFCE0E40D47FEF520E662
:10011000B500D0ED902E0300943577050080841E45
:10012000080000204E0A000000C80C333333330FA0
:10013000986E12831141EF8D2114893BE65516CF3D
:10014000FEE6DB18D1844B381BF77C1D901DA4BB49
:10015000E424203284725E228100C9F124ECA1E5FE
:100160003D2700000000240027002A0000000000B6
:10017000250028002B0000000008000201000003F9
:100180000407000000000000000000000000230041
:1001900026002900040404040404040402020202E8
:1001A000020203030303030301020408102040803A
:1001B000010204081020010204081020150D11246A
:1001C0001FBECFEFD8E0DEBFCDBF23E0ACE6B2E08C
:1001D00001C01D92A734B207E1F712E0A0E0B1E040
:1001E000E6EDFAE202C005900D92AC36B107D9F700
:1001F00010E0CFEDD0E004C02197FE010E94711302
:10020000CE3DD107C9F70E94A40D0C9469150C943A
:10021000000080911903E0911A03F0911B03F894F8
:100220009181982B91832281382F3095232322832B
:10023000A7E0B0E01197F1F7918193239183A3E2B6
:10024000B0E01197F1F790817894EFECF0E03197FE
:10025000F1F7982381E009F480E008959091190363
:10026000E0911A03F0911B03292F209580FF14C001
:10027000F8948281822382838181892B8183A3E206
:10028000B0E01197F1F78281982B9283789487EDF3
:1002900090E00197F1F70895F89482818223828398
:1002A0008181892B8183AFEFB0E01197F1F78281D3
:1002B000982B928378948FE090E0EBCFFF920F938E
:1002C0001F93CF93DF93F82E062FC8E0D0E011E004
:1002D00081E09F2D912309F480E00E942E01110FEF
:1002E0002197B1F7011113C0F894E0911A03F0912E
:1002F0001B03918180911903809598239183E0914C
:100300001A03F0911B039281892382837894DF91F1
:10031000CF911F910F91FF9008950F931F93CF934B
:10032000DF938C0160E085E50E945E01E801085FD3
:100330001F4F60E089910E945E01C017D107C9F785
:10034000DF91CF911F910F91089580911903E09152
:100350001A03F0911B03F8949181282F2095922382
:10036000918378943DE743E050E0315029F1DA0180
:100370001197F1F790819823C1F3F8949281922319
:1003800092839181982B91837894ABE7B7E0119792
:10039000F1F7F894918192239183A3E1B1E0119751
:1003A000F1F79081982381E009F080E07894E3E60A
:1003B000F6E03197F1F7089580E00895FC01538D40
:1003C000448D252F30E0842F90E0821B930B54172F
:1003D00010F0CF96089501970895FC01918D828DBC
:1003E000981761F0A28DAE0FBF2FB11D5D968C9155
:1003F000928D9F5F9F73928F90E008958FEF9FEF94
:100400000895FC01918D828D981731F0828DE80F4F
:10041000F11D858D90E008958FEF9FEF0895FC0109
:10042000918D228D892F90E0805C9F4F821B9109D6
:100430008F7399270895FC01A48DA80FB92FB11DC2
:10044000A35ABF4F2C91848D90E001968F7399270A
:10045000848FA689B7892C93A089B1898C918370E8
:1004600080648C93938D848D981306C00288F389E1
:10047000E02D80818F7D80830895EF92FF920F930E
:100480001F93CF93DF93EC0181E0888F9B8D8C8D40
:1004900098131AC0E889F989808185FF15C09FB734
:1004A000F894EE89FF896083E889F98980818370F7
:1004B000806480839FBF81E090E0DF91CF911F91A6
:1004C0000F91FF90EF900895F62E0B8D10E00F5FC7
:1004D0001F4F0F731127E02E8C8D8E110CC00FB69D
:1004E00007FCFACFE889F989808185FFF5CFCE0135
:1004F0000E941B02F1CFEB8DEC0FFD2FF11DE35A93
:10050000FF4FF0829FB7F8940B8FEA89FB898081B7
:100510008062CFCFCF93DF93EC01888D8823B9F031
:10052000AA89BB89E889F9898C9185FD03C08081FE
:1005300086FD0DC00FB607FCF7CF8C9185FFF2CF7B
:10054000808185FFEDCFCE010E941B02E9CFDF91B4
:10055000CF9108958CE792E00E940F0221E0892B51
:1005600009F420E0822F089580E090E0892B29F0A3
:100570000E94AA0281110C9400000895AF92BF92CC
:10058000CF92DF92EF92FF920F931F93CF93DF935F
:100590006C017B018B01040F151FEB015E01AE188E
:1005A000BF08C017D10759F06991D601ED91FC91B0
:1005B0000190F081E02DC6010995892B79F7C501DD
:1005C000DF91CF911F910F91FF90EF90DF90CF902F
:1005D000BF90AF900895833081F028F4813099F076
:1005E0008230A9F008958730A9F08830C9F08430AE
:1005F000B1F4809180008F7D03C0809180008F775F
:1006000080938000089584B58F7784BD089584B564
:100610008F7DFBCF8091B0008F778093B0000895DD
:100620008091B0008F7DF9CFCF93DF93282F30E0FA
:10063000F901EA58FE4F8491F901E855FE4FD49133
:10064000F901EC56FE4FC491CC23A1F081110E9418
:10065000EB02EC2FF0E0EE0FFF1FE657FE4FA591E7
:10066000B491EC91ED2381E090E009F480E0DF911A
:10067000CF91089580E090E0FACF1F93CF93DF935E
:10068000282F30E0F901EA58FE4F8491F901E8552E
:10069000FE4FD491F901EC56FE4FC491CC23A9F042
:1006A000162F81110E94EB02EC2FF0E0EE0FFF1FDE
:1006B000E459FE4FA591B4918FB7F894EC911111C4
:1006C00008C0D095DE23DC938FBFDF91CF911F91BF
:1006D0000895DE2BF8CFCF93DF9390E0FC01E8552F
:1006E000FE4F24918C569E4FFC0184918823D1F0BB
:1006F00090E0880F991FFC01EE59FE4FA591B4912F
:10070000FC01E459FE4FC591D49161110EC09FB711
:10071000F8948C91E22FE0958E238C932881E2232C
:10072000E8839FBFDF91CF9108958FB7F894EC9144
:10073000E22BEC938FBFF6CF3FB7F894809178020D
:1007400090917902A0917A02B0917B0226B5A89B84
:1007500005C02F3F19F00196A11DB11D3FBFBA2F53
:10076000A92F982F8827BC01CD01620F711D811D13
:10077000911D42E0660F771F881F991F4A95D1F798
:1007800008958F929F92AF92BF92CF92DF92EF9295
:10079000FF924B015C010E949C036B017C010E9453
:1007A0009C036C197D098E099F09683E7340810581
:1007B0009105A8F321E0821A9108A108B10888EEFA
:1007C000C80E83E0D81EE11CF11C81149104A10421
:1007D000B10429F7FF90EF90DF90CF90BF90AF90DA
:1007E0009F908F900895089590E080E00895FC0117
:1007F00001900020E9F73197AF01481B590BBC016C
:1008000087E293E00C94BE028F929F92AF92BF92C8
:100810000F931F93CF93DF93CDB7DEB7A1970FB69A
:10082000F894DEBF0FBECDBF19A2423008F44AE0F3
:100830008E010F5D1F4F842E912CB12CA12CA50190
:1008400094010E943013E62FB901CA01EA30F4F492
:10085000E05DD801EE938D01232B242B252B79F716
:1008600090E080E0109719F0CD010E94F703A19667
:100870000FB6F894DEBF0FBECDBFDF91CF911F91B1
:100880000F91BF90AF909F908F900895E95CE1CF5A
:100890000C94F703CF93DF93EC0160E08E810E940C
:1008A0003D0361E08E810E943D0360E08E810E94E5
:1008B0003D038BE891E00197F1F7DF91CF91089527
:1008C000CF92DF92EF92FF920F931F93CF93DF931C
:1008D0006C017C0187E0E80EF11CD0E0C0E0062F3F
:1008E00010E0B8010C2E02C0759567950A94E2F7E6
:1008F0006170F70181917F010E943D032196C43010
:10090000D10579F7C601DF91CF911F910F91FF902B
:10091000EF90DF90CF900C944A04CF92DF92EF9249
:10092000FF920F931F93CF93DF93EC01F62E642F6A
:100930008C810E943D038D818F3F19F060E00E9401
:100940003D030F2D10E08F8584FF25C06E0187E0E9
:10095000C80ED11CF12CE12CB8010E2C02C07595EB
:1009600067950A94E2F76170F60181916F010E9428
:100970003D03FFEFEF1AFF0A88E0E816F10461F784
:10098000CE01DF91CF911F910F91FF90EF90DF90FB
:10099000CF900C944A04B80184E0759567958A95C8
:1009A000E1F7CE010E9460046F2DCE01DF91CF915F
:1009B0001F910F91FF90EF90DF90CF900C94600407
:1009C00040E0682F87E293E00C948D0481E00E9460
:1009D000E0048BE39FE10197F1F70895CF93DF9354
:1009E000823029F490913603986090933603809377
:1009F0003A0310923B0380E480933C0380E18093B0
:100A00003D0380E580933E0361E080912B030E94CB
:100A10006B0380912C038F3F19F061E00E946B0300
:100A200061E080912D030E946B03C7E2D3E09E0139
:100A3000275233408091360384FD0BC084E090E060
:100A400021962817390744F461E08E810E946B03D8
:100A5000EECF88E090E0F4CF8BE39DE00197F1F7D3
:100A600060E080912B030E943D0360E080912D03A4
:100A70000E943D0380912C038F3F19F060E00E949B
:100A80003D038091360384FD34C063E087E293E048
:100A90000E946004CBE4D6E4CE010197F1F763E055
:100AA00087E293E00E9460042197F1F763E087E218
:100AB00093E00E94600483E592E00197F1F762E021
:100AC00087E293E00E9460048091360380620E9476
:100AD000E00484E0809337038CE00E94E0040E94ED
:100AE000E60482E08093380386E0DF91CF910C9496
:100AF000E00480620E94E0048BE496E40197F1F741
:100B00008091360380620E94E00483E592E00197C1
:100B1000F1F78091360380620E94E004D5CF8430E3
:100B200008F083E090913A03891710F08FEF890F56
:100B3000E82FF0E0E95DFC4F848980680C94E004C4
:100B400041E00E948D0481E090E008954F925F9211
:100B50006F927F928F929F92AF92BF92CF92DF92CD
:100B6000EF92FF920F931F93CF936B017C01742E32
:100B7000AC019B010E942B13882399F089E291E03C
:100B8000CF911F910F91FF90EF90DF90CF90BF908A
:100B9000AF909F908F907F906F905F904F900C944C
:100BA000F70346015701E894B7F82FEF3FEF4FE7FF
:100BB0005FE7C501B4010E942B1381110DC02FEF17
:100BC0003FEF4FE75FE7C501B4010E94B61018166A
:100BD0001CF48DE291E0D4CF2FEF3FEF4FE75FE4BD
:100BE000C701B6010E94261318161CF481E391E098
:100BF000C7CF2FEF3FEF4FE75FECC701B6010E9471
:100C0000B61087FDF3CF20E030E0A901C701B6019F
:100C10000E94B61010E000E087FF0CC041E06DE2DA
:100C200087E293E00E948D04F7FAF094F7F8F094CD
:100C300001E010E0C0E060E070E080E09FE37C163F
:100C400041F020E030E040E251E40E947E12CF5FAC
:100C5000F6CFA70196010E9412124B015C010E947F
:100C6000F7122B013C014AE00E940404080F191FEF
:100C7000CC23C9F1C301B2010E94BB109B01AC019E
:100C8000C501B4010E9411124B015C0141E06EE20A
:100C900087E293E00E948D040F5F1F4FC15018F14F
:100CA00020E030E040E251E4C501B4010E941C1193
:100CB0002B013C010E94F7124B01B12CA12C4AE000
:100CC000C501B4010E940404080F191FC501B40135
:100CD0000E94BB109B01AC01C301B2010E94111222
:100CE0004B015C01DBCFC801CF911F910F91FF90A9
:100CF000EF90DF90CF90BF90AF909F908F907F90BC
:100D00006F905F904F9008950F931F93CF93DF9351
:100D10008C01862F0E948F05D0E0C0E0D801149688
:100D20008D919C911597C817D907C8F4ED91FC9146
:100D3000309791F410926C02ECE6F2E041E06081B1
:100D400087E293E00E948D0464E170E080E090E02F
:100D50000E94C1032196E2CFEC0FFD1FEFCF419718
:100D6000A0F0D0E0C0E0F801848195814097C817D9
:100D7000D90758F488E10E94E00464E170E080E063
:100D800090E00E94C1032196EECFDF91CF911F9199
:100D90000F9108950F931F93CF93DF93EC018881F8
:100DA0009981009759F02A813B812617370730F047
:100DB00081E0DF91CF911F910F9108958B016F5FBB
:100DC0007F4F0E949C14009759F0998388831B835E
:100DD0000A832C813D81232B59F7FC011082E8CF37
:100DE00080E0E7CFCF93DF93EC0188819981009772
:100DF00011F00E941314198218821D821C821B821A
:100E00001A82DF91CF910895EF92FF920F931F9373
:100E1000CF93DF93EC017B018A01BA010E94CA06DD
:100E200081110BC0CE010E94F206CE01DF91CF915D
:100E30001F910F91FF90EF9008951D830C83B701D0
:100E4000888199810E946215F0CFEF92FF920F93F3
:100E50001F93CF93DF93CDB7DEB7A1970FB6F8946A
:100E6000DEBF0FBECDBF7C01CB01BA01F7011182FD
:100E7000108213821282158214828E010F5F1F4F1F
:100E800022E044E00E94610E0097C9F0FC0101904D
:100E90000020E9F73197AF01481B590BBC01C7018E
:100EA0000E940407A1960FB6F894DEBF0FBECDBF17
:100EB000DF91CF911F910F91FF90EF900895C7019F
:100EC0000E94F206EFCFCF93DF93EC01FB01861770
:100ED000970749F0608171816115710541F0448186
:100EE00055810E940407CE01DF91CF9108950E94A1
:100EF000F206F9CFFC011182108213821282158250
:100F00001482FB0101900020E9F73197AF01461BE5
:100F1000570B0C940407FC0180819181009711F01C
:100F20000C9413140895EF92FF920F931F93CF9395
:100F3000DF9300D000D000D0CDB7DEB77C018B01AD
:100F40000E94E604D70114968D919C911597892BE8
:100F5000D1F0ED91FC9180818823A9F01A82198249
:100F60001C821B821E821D82B701CE0101960E9447
:100F7000630770E060E0CE0101960E948406CE0116
:100F800001960E948B07F80184819581892BD9F005
:100F90000190F081E02D80818823A9F01A821982C6
:100FA0001C821B821E821D82B801CE0101960E9406
:100FB000630761E070E0CE0101960E948406CE01D5
:100FC00001960E948B0726960FB6F894DEBF0FBEDF
:100FD000CDBFDF91CF911F910F91FF90EF900895BA
:100FE0002F923F924F925F926F927F928F929F9239
:100FF000AF92BF92CF92DF92EF92FF920F931F9327
:10100000CF93DF93CDB7DEB762970FB6F894DEBF0C
:101010000FBECDBF88E00E9414038C019093720232
:101020008093710289E00E9414030130110509F0D8
:1010300053C0C0906D02D0906E02E0906F02F090AD
:10104000700220E030E0A901C701B6010E94B6108D
:1010500087FD0BC020E030E040EF51E4C701B6014E
:101060000E94261318160CF062C00E94E60485E365
:1010700091E00E94480481E00E948F05C0906D02BB
:10108000D0906E02E0906F02F090700220E030E0AD
:1010900040EF51E4C701B6010E9426131816ACF5C3
:1010A0008EE391E00E94480442E060E070E080EF4F
:1010B00091E40E94A6058EE491E00E94480468EE47
:1010C00073E080E090E00E94C10381E00E948F0500
:1010D00081E591E00E94480462960FB6F894DEBF65
:1010E0000FBECDBFDF91CF911F910F91FF90EF9079
:1010F000DF90CF90BF90AF909F908F907F906F9038
:101100005F904F903F902F90089520E030E0A9012C
:10111000C701B6010E94B61087FFCDCF86E491E0EB
:101120000E94480442E060E070E0CB01C2CF0E9420
:10113000E60482E691E00E94480481E00E948F0567
:1011400062E370E080E090E00E94C1038CE592E0F1
:101150000E94480462E370E080E090E00E94C103D6
:101160008CE592E00E94480462E370E080E090E049
:101170000E94C1038CE592E00E94480462E370E0A3
:1011800080E090E00E94C10381E00E948F0562E34D
:1011900070E080E090E00E94C10320E030EC4FE777
:1011A00054E46091000170910101809102019091DD
:1011B00003010E947E122B013C01F12CE12CD12C69
:1011C000C12C88E00E9414038C01909372028093DA
:1011D000710289E00E9414030197A1F40E94E604C1
:1011E0008EE691E00E94480481E00E948F058CE722
:1011F00091E00E9448046AEF70E080E090E00E9475
:10120000C1036ACF0130110529F50E94E6042F2D94
:101210003E2D4D2D5C2D609100017091010180915A
:101220000201909103010E941112609300017093DA
:101230000101809302019093030186E891E00E94EE
:1012400048046AEF70E080E090E00E94C1030E94D1
:10125000E60442CF80E480937C0080917A00806431
:1012600080937A0080917A0086FDFCCF809178008F
:1012700060917900762F682F072E000C880B990B50
:101280000E94BD10A30192010E941C11F62EE72EB0
:10129000D82EC92E60E082E10E943D0383E090E0F9
:1012A0000197F1F761E082E10E943D0383E290E063
:1012B0000197F1F760E082E10E943D03EBEBF1E082
:1012C0006491E7EAF1E08491E82FF0E0EE0FFF1F70
:1012D000E657FE4F8591949100E412E42FE030E050
:1012E000462F0E94D00C611571058105910529F0EA
:1012F0006F5F7F4F8F4F9F4F9F702AE330E040E03A
:1013000050E00E945213CA01B9010E94BD1020E0B2
:1013100030E040E251E40E9411120E94F0120E945B
:10132000BD1020913F033091400340914103509103
:1013300042030E941C119B01AC0160E070E08AE74F
:1013400095E40E9411125B018C019B01AC016F2D91
:101350007E2D8D2D9C2D0E94261318160CF083C017
:101360000E94E60484E991E00E94480481E00E9422
:101370008F056CE971E0CE010D960E947A071A8202
:1013800019821C821B821E821D82BE01635F7F4FF9
:10139000CE0101960E94630761E070E0CE010196E4
:1013A0000E948406CE0101960E948B0768EC70E0D3
:1013B00080E090E00E94C1030E94E60462EF71E0C9
:1013C000CE0107960E947A076FEF71E0CE01019679
:1013D0000E947A07BE01695F7F4FCE0101960E948D
:1013E0009307CE0101960E948B07CE0107960E94BB
:1013F0008B0742E0B501C8010E94A60564EF71E0C9
:1014000080E090E00E94C10361E671E0CE010796A2
:101410000E947A0769E072E0CE0101960E947A0785
:10142000BE01695F7F4FCE0101960E949307CE01F6
:1014300001960E948B07CE0107960E948B0768ECED
:1014400070E080E090E00E94C1030E94E60482E622
:1014500091E00E944804CE010D960E948B07FA2C61
:10146000EB2CD02EC12E81E00E948F05409100010F
:10147000509101016091020170910301CE01079624
:101480000E9425072B843C844F2D5E2D6D2D7C2DD5
:10149000CE0101960E9425070D811E81CE01019685
:1014A0000E948B074F2D5E2D6D2D7C2DCE010D964C
:1014B0000E942507912C812C201A310A8214930452
:1014C000D4F562E372E0CE0101960E947A07AD8402
:1014D000BE84A114B10451F109891A8901151105BD
:1014E000B1F08D819E81080F191FB801CE010196C0
:1014F0000E94CA068823D1F029813A818D819E817C
:10150000B501820F931F0E9462151E830D83BE01D9
:101510006F5F7F4FCE010D960E946307CE0101964B
:101520000E948B07FFEF8F1A9F0AC8CFCE0101964A
:101530000E94F206ECCF49895A896D857E8587E243
:1015400093E00E94BE02CE010D960E948B07CE0151
:1015500007960E948B0784E392E00E94480431CEF4
:101560008F929F92AF92BF92CF92DF92EF92FF92B3
:101570000F931F93CF93DF93CDB7DEB764970FB66A
:10158000F894DEBF0FBECDBF80912603811124C029
:101590000E94A501882301F160E080EF0E945E01B6
:1015A00001E0E12CD12C11E00E940901F82E0E94EB
:1015B000090191E0F9128DC0813009F0A9C0113400
:1015C00058F0D0922403D11003C081E08093260309
:1015D00080911C038111B2C0109224031092260343
:1015E00010922503109223031092220310922103DC
:1015F0001092200310921F0310921E0310921D03DD
:1016000010921C036AEF70E080E090E00E94C1033A
:1016100080926D0290926E02A0926F02B092700260
:101620000E94E60480E00E948F0588E392E00E9419
:101630004804609100017091010180910201909134
:1016400003010E94F0126B01770FEE08FF084AE0D9
:10165000C701B601F7FE0EC041E06DE287E293E0FC
:101660000E948D0466277727CB016C197D098E09AE
:101670009F094AE00E94040484E392E00E94480427
:1016800081E00E948F0580E492E00E94480460910E
:101690006D0270916E0280916F029091700242E033
:1016A0000E94A6058EE491E00E94480464960FB65D
:1016B000F894DEBF0FBECDBFDF91CF911F910F9188
:1016C000FF90EF90DF90CF90BF90AF909F908F9062
:1016D0000895EE2DF0E0F81211C080912403181740
:1016E000A8F4DF01A75EBC4F13968C91802381F490
:1016F000F12C193010F410932503D12EE75EFC4F26
:101700008381902F9095892383830BC08113F0CF21
:10171000EE2DF0E0E75EFC4F8381802B8383FF2476
:10172000F3948F2D0E942E011F5F000F11F4E3949C
:1017300001E0E7E0EE1508F037CF41CFACE1B3E0D0
:10174000FE013D96CE0145967F012D912193E8172C
:10175000F907D9F78D85823209F46AC0883209F415
:1017600067C0803109F054CFBB24B3940E94A50117
:10177000C7010E948D0161E084E40E945E018091B6
:101780000401811157C004E110E00E94F00762E3F8
:1017900070E080E090E00E94C10301501109A9F7B8
:1017A0000E94A501C7010E948D0160E08EEB0E949E
:1017B0005E018E010F5F1F4F4E01FAE08F0E911CEC
:1017C00098E0C92ED12CF12CEE24E3940E9409015B
:1017D0008111FE28EE0C81E0C81AD108B9F7F80192
:1017E000F1928F018E169F0659F769817A81BB208D
:1017F00041F183E0660F771F8A95E1F78885803194
:1018000041F42F818CE090E0821B9109607F680F8A
:10181000791F072E000C880B990B0E94BD1020E049
:1018200030E040E85DE30E941C114B015C01F0CE0A
:10183000B12C9CCF68EE73E080E090E00E94C10381
:10184000AFCF8D81807611F4687FE3CF803211F4C1
:101850006C7FDFCF8034E9F66E7FDBCF1F920F9273
:101860000FB60F9211242F933F934F935F936F9373
:101870007F938F939F93AF93BF93EF93FF938CE7E7
:1018800092E00E941B02FF91EF91BF91AF919F9157
:101890008F917F916F915F914F913F912F910F9019
:1018A0000FBE0F901F9018951F920F920FB60F92B8
:1018B00011242F938F939F93EF93FF93E0918C02CA
:1018C000F0918D028081E0919202F091930282FD6D
:1018D0001BC09081809195028F5F8F73209196023B
:1018E000821741F0E0919502F0E0E458FD4F958FAA
:1018F00080939502FF91EF919F918F912F910F907F
:101900000FBE0F901F9018958081F4CF1F920F92F9
:101910000FB60F9211242F933F938F939F93AF9302
:10192000BF938091740290917502A0917602B0915C
:1019300077023091730223E0230F2D3758F501967B
:10194000A11DB11D209373028093740290937502C0
:10195000A0937602B09377028091780290917902F9
:10196000A0917A02B0917B020196A11DB11D8093D6
:10197000780290937902A0937A02B0937B02BF9190
:10198000AF919F918F913F912F910F900FBE0F902C
:101990001F90189526E8230F0296A11DB11DD2CFE6
:1019A000CF92DF92EF92FF920F931F93E82FF92FC0
:1019B00005C0015011092109310961F19081962377
:1019C0009417B9F305C0015011092109310911F12A
:1019D000908196239413F7CFC12CD12CE12CF12CBC
:1019E0000AC08FEFC81AD80AE80AF80A0C151D05B4
:1019F0002E053F0579F080818623841791F36C2DA5
:101A00007D2D8E2D9F2D1F910F91FF90EF90DF90D8
:101A1000CF90089560E070E080E090E01F910F911A
:101A2000FF90EF90DF90CF900895ECE7F2E0138203
:101A3000128288EE93E0A0E0B0E084839583A683D1
:101A4000B7838FE091E09183808385EC90E0958768
:101A5000848784EC90E09787868780EC90E0918B78
:101A6000808B81EC90E0938B828B82EC90E0958B65
:101A7000848B86EC90E0978B868B118E128E138E62
:101A8000148E80E090E0A8E4B3E480933F03909349
:101A90004003A0934103B0934203E7E2F3E01382D3
:101AA000128281E291E0918380838CE084838FEFC6
:101AB00085838BE0868387E0878386E0808785E067
:101AC000818784E08287138614861586168617869A
:101AD00081E00E94EE0460E08AE00E946B03E2EB8A
:101AE000F1E0E491A9E1B3E0EC93EEE9F1E0E491F7
:101AF000F0E0EE0FFF1FE657FE4F8591949112968E
:101B00009C938E9311971B961C921B971D961C926B
:101B10001D971C961C921C971A961C921A97199640
:101B20001C92199718961C92189717961C92179743
:101B300016961C92169715961C92159714961C9241
:101B4000149713961C920895CF93DF93CDB7DEB709
:101B50002C970FB6F894DEBF0FBECDBF789484B536
:101B6000826084BD84B5816084BD85B5826085BD99
:101B700085B5816085BD80916E00816080936E0027
:101B80001092810080918100826080938100809119
:101B900081008160809381008091800081608093CA
:101BA00080008091B10084608093B1008091B0008A
:101BB00081608093B00080917A00846080937A0085
:101BC00080917A00826080937A0080917A008160AF
:101BD00080937A0080917A00806880937A001092D6
:101BE000C10082E00E94EE0480E00E948F0561E067
:101BF00082E10E946B0360E083E10E946B0360E07E
:101C000088E00E946B0360E089E00E946B0361E65C
:101C100071E0CE0101960E947A0767E472E0CE017E
:101C200007960E947A07BE016F5F7F4FCE0107962D
:101C30000E949307CE0107960E948B07CE01019662
:101C40000E948B076EE571E080E090E00E94C10386
:101C50000E94E60463E572E0CE0101960E947A07D5
:101C60006EE572E0CE0107960E947A07BE016F5FB3
:101C70007F4FCE0107960E949307CE0107960E94E0
:101C80008B07CE0101960E948B076EE571E080E024
:101C900090E00E94C1030E94E6040E94B00A1092E4
:101CA000040100E010E00E94F0070E94B00A011554
:101CB0001105C9F30E94AA028823A9F30E9400001B
:101CC000F2CFEF920F931F93CF93DF93E80134E0AD
:101CD00047FD34E1042E000C550B57FF03C051950E
:101CE00041955109E32E022F242FAE010E947F0E51
:101CF000CE01DF91CF911F910F91EF900895A9E050
:101D0000B0E0E5E8FEE00C94E0116A01F22EB02E9E
:101D1000102FFBE3AF2EA01608F41BE31F5F012F6B
:101D200027E0AE014F5F5F4F0E94DE0FBC0189814B
:101D3000982F9970913009F43FC09BE2E1FC04C0F8
:101D40009E2D9170E0FC3AC05E2D5071E82FE87036
:101D500083FF46C084E0911101C083E0EF2DE81BB2
:101D60008F1508F0E0E0D6018E2F20E2552351F1C7
:101D7000992329F0D6019C93C60101966C01960126
:101D80002D5F3F4FE2FE24C08EE4D6018C9391E498
:101D900011969C93119712968C93D9018E2F90E2F5
:101DA00081111BC0E20FF32FF11D10828EEF9FEF08
:101DB0002996ECE00C94FC119DE2C6CF90E2C4CFD2
:101DC0002D9381508111FCCFCE0ED11CE0E0D0CFFD
:101DD0008EE6D6018C9391E6DBCF9D938150E0CFC8
:101DE000482F447082FF3DC084E0911101C083E020
:101DF0008F1510F4EF2DE81BD6018E2F20E255230E
:101E000009F1992329F0D6019C93C60101966C0132
:101E100096012D5F3F4FE2FE1BC089E4D6018C93F3
:101E20008EE411968C93119786E412968C93D901C7
:101E30008E2F90E2882309F4B5CF9D938150FACF7D
:101E40002D9381508111FCCFCE0ED11CE0E0D9CF73
:101E500089E6D6018C938EE611968C93119786E6CF
:101E6000E4CF9B0177FF02C030E020E0A1E0B0E0CA
:101E7000911102C0B0E0A0E0F9013196AE0FBF1F92
:101E80008B2C912CBB2009F461C05401EFEFAE1AEA
:101E9000BE0AAA0DBB1DFA161B0619F014F04F2D31
:101EA0004A1B511188C0E3FC59C07601A42FB0E24F
:101EB000A1114FC0C40ED11C992309F45BC040E0AE
:101EC000D6011196F60190836D01552309F448C09F
:101ED000012F060F9A81582F507184FF03C0913350
:101EE00009F4015010160CF047C0093008F008E062
:101EF000EEE2FE2E5B01A01AB10885019194819457
:101F000091082F3F320729F4D601FC92F601319651
:101F10006F016217730794F1021713077CF5DB0159
:101F2000A21BB30BAA24A394B12CAC0EBD1EAA0D08
:101F3000BB1D11968C9121503109D601119628159F
:101F40003905F4F0F60180836D01DBCFB12CA12CB3
:101F5000A0CFF701B1937F01A150AACF9111B0CFCB
:101F6000D601942F50E302C05D9391509111FCCFA4
:101F7000C40ED11C40E0ACCF01E0BACF80E3DBCF90
:101F80006217730731F4963388F4953311F45523AF
:101F900069F0F6018083FD01842F90E2811108C071
:101FA000A40FB11D1C9290E080E002CF81E3F1CF3D
:101FB00091938150F3CF911183CF8ACF283008F0CD
:101FC00027E03327DA01990F311D87FD91600096D4
:101FD0006105710539F432602E5F3D9330E32A9537
:101FE000E1F708959F3F30F080387105610509F0F1
:101FF0003C5F3C5F3D93913008F08068911DDF931A
:10200000CF931F930F93FF92EF92192F987F96957E
:10201000E92F96959695E90FFF27EE53FF4F9927E5
:102020003327EE24FF24A701E701059008940794C5
:1020300028F4360FE71EF81E491F511D660F771F43
:10204000881F991F0694A1F70590079428F4E70EBE
:10205000F81E491F561FC11D770F881F991F661F45
:102060000694A1F70590079428F4F80E491F561F0F
:10207000C71FD11D880F991F661F771F0694A1F7F0
:102080000590079420F4490F561FC71FD81F990FBA
:10209000661F771F881F0694A9F784911095177003
:1020A00041F0D695C79557954795F794E7941A95BB
:1020B000C1F7E8E6F0E068941590159135916591C7
:1020C000959105907FE27395E118F10A430B560B49
:1020D000C90BD009C0F7E10CF11E431F561FC91FE1
:1020E000D01D7EF4703311F48A95E6CFE894015048
:1020F00030F0080F0AF40027021708F4202F239568
:10210000022F7A3328F079E37D932A95E9F710C0FE
:102110007D932A9589F60694979567953795179537
:102120001794E118F10A430B560BC90BD00998F02C
:1021300023957E9173957A3308F070E37C93201396
:10214000B8F77E9170617D9330F0839571E37D9354
:1021500070E32A95E1F71124EF90FF900F911F9102
:10216000CF91DF91992787FD909508950E94F810EF
:1021700008F481E00895E89409C097FB3EF4909537
:102180008095709561957F4F8F4F9F4F9923A9F050
:10219000F92F96E9BB279395F695879577956795DF
:1021A000B795F111F8CFFAF4BB0F11F460FF1BC023
:1021B0006F5F7F4F8F4F9F4F16C0882311F096E9B6
:1021C00011C0772321F09EE8872F762F05C0662364
:1021D00071F096E8862F70E060E02AF09A95660F1D
:1021E000771F881FDAF7880F9695879597F90895D6
:1021F000990F0008550FAA0BE0E8FEEF1616170618
:10220000E807F907C0F012161306E407F50798F07F
:10221000621B730B840B950B39F40A2661F0232B98
:10222000242B252B21F408950A2609F4A140A69514
:102230008FEF811D811D08950E942F110C94A01114
:102240000E94921138F00E94991120F0952311F00C
:102250000C9489110C948F1111240C94D4110E94A8
:10226000B11170F3959FC1F3950F50E0551F629F18
:10227000F001729FBB27F00DB11D639FAA27F00DDF
:10228000B11DAA1F649F6627B00DA11D661F829F06
:102290002227B00DA11D621F739FB00DA11D621FEB
:1022A000839FA00D611D221F749F3327A00D611D08
:1022B000231F849F600D211D822F762F6A2F1124EA
:1022C0009F5750409AF0F1F088234AF0EE0FFF1F1D
:1022D000BB1F661F771F881F91505040A9F79E3F74
:1022E000510580F00C9489110C94D4115F3FE4F3F4
:1022F000983ED4F3869577956795B795F795E795CA
:102300009F5FC1F7FE2B880F911D9695879597F9D2
:10231000089597F99F6780E870E060E008959FEF67
:1023200080EC089500240A9416161706180609066C
:10233000089500240A94121613061406050608953B
:10234000092E0394000C11F4882352F0BB0F40F4C3
:10235000BF2B11F460FF04C06F5F7F4F8F4F9F4F03
:10236000089557FD9058440F551F59F05F3F71F085
:102370004795880F97FB991F61F09F3F79F08795EC
:102380000895121613061406551FF2CF4695F1DF75
:1023900008C0161617061806991FF1CF8695710505
:1023A000610508940895E894BB2766277727CB0139
:1023B00097F908952F923F924F925F926F927F927A
:1023C0008F929F92AF92BF92CF92DF92EF92FF9245
:1023D0000F931F93CF93DF93CDB7DEB7CA1BDB0BF1
:1023E0000FB6F894DEBF0FBECDBF09942A88398896
:1023F00048885F846E847D848C849B84AA84B9849D
:10240000C884DF80EE80FD800C811B81AA81B981A8
:10241000CE0FD11D0FB6F894DEBF0FBECDBFED01BC
:1024200008955058BB27AA270E9429120C94A01186
:102430000E94921138F00E94991120F039F49F3FC8
:1024400019F426F40C948F110EF4E095E7FB0C942C
:102450008911E92F0E94B11158F3BA176207730767
:102460008407950720F079F4A6F50C94D3110EF4A7
:10247000E0950B2EBA2FA02D0B01B90190010C0194
:10248000CA01A0011124FF27591B99F0593F50F4AC
:10249000503E68F11A16F040A22F232F342F442704
:1024A000585FF3CF469537952795A795F0405395FC
:1024B000C9F77EF41F16BA0B620B730B840BBAF0CC
:1024C0009150A1F0FF0FBB1F661F771F881FC2F737
:1024D0000EC0BA0F621F731F841F48F4879577954B
:1024E0006795B795F7959E3F08F0B0CF9395880F05
:1024F00008F09927EE0F9795879508950E949212FC
:102500000C94A0110E94991158F00E94921140F071
:1025100029F45F3F29F00C94891151110C94D411C6
:102520000C948F110E94B11168F39923B1F35523D4
:1025300091F3951B550BBB27AA27621773078407D6
:1025400038F09F5F5F4F220F331F441FAA1FA9F36C
:1025500035D00E2E3AF0E0E832D091505040E6955A
:10256000001CCAF72BD0FE2F29D0660F771F881FBB
:10257000BB1F261737074807AB07B0E809F0BB0BAE
:10258000802DBF01FF2793585F4F3AF09E3F5105C2
:1025900078F00C9489110C94D4115F3FE4F3983EC9
:1025A000D4F3869577956795B795F7959F5FC9F7AB
:1025B000880F911D9695879597F90895E1E0660F2C
:1025C000771F881FBB1F621773078407BA0720F0A5
:1025D000621B730B840BBA0BEE1F88F7E09508950E
:1025E0000E94F7126894B1110C94D41108950E94BE
:1025F000B91188F09F5798F0B92F9927B751B0F0CB
:10260000E1F0660F771F881F991F1AF0BA95C9F776
:1026100014C0B13091F00E94D311B1E008950C9430
:10262000D311672F782F8827B85F39F0B93FCCF3E3
:10263000869577956795B395D9F73EF490958095F3
:10264000709561957F4F8F4F9F4F08950E94F810AE
:1026500008F48FEF08950E94F810880B990B0895E5
:10266000A1E21A2EAA1BBB1BFD010DC0AA1FBB1F96
:10267000EE1FFF1FA217B307E407F50720F0A21B08
:10268000B30BE40BF50B661F771F881F991F1A9475
:1026900069F760957095809590959B01AC01BD019F
:1026A000CF010895052E97FB1EF400940E94691334
:1026B00057FD07D00E94301307FC03D04EF40C9452
:1026C000691350954095309521953F4F4F4F5F4F7F
:1026D000089590958095709561957F4F8F4F9F4F8E
:1026E0000895EE0FFF1F0590F491E02D09940F93CC
:1026F0001F93CF93DF938230910510F482E090E036
:10270000E0914503F091460330E020E0B0E0A0E026
:10271000309799F42115310509F44AC0281B390B6B
:1027200024303105D8F58A819B816115710589F1C5
:10273000FB0193838283FE0111C04081518102819C
:10274000138148175907E0F04817590799F4109773
:1027500061F012960C93129713961C933296CF0148
:10276000DF91CF911F910F9108950093450310932E
:102770004603F4CF2115310551F04217530738F0C5
:10278000A901DB019A01BD01DF01F801C1CFEF0111
:10279000F9CF9093460380934503CDCFFE01E20F1E
:1027A000F31F819391932250310939832883D7CF26
:1027B0002091430330914403232B41F420910701DE
:1027C0003091080130934403209343032091050185
:1027D000309106012115310541F42DB73EB74091E6
:1027E000090150910A01241B350BE0914303F0913C
:1027F0004403E217F307A0F42E1B3F0B28173907F9
:1028000078F0AC014E5F5F4F2417350748F04E0F4C
:102810005F1F5093440340934303819391939FCF51
:10282000F0E0E0E09CCFCF93DF930097E9F0FC016C
:10283000329713821282A0914503B0914603ED01B5
:1028400030E020E01097A1F420813181820F931FA6
:1028500020914303309144032817390709F061C0E0
:10286000F0934403E0934303DF91CF910895EA018D
:10287000CE17DF07E8F54A815B819E0141155105BE
:10288000B1F7E901FB83EA8349915991C40FD51F40
:10289000EC17FD0761F4808191810296840F951FEA
:1028A000E90199838883828193819B838A83F0E005
:1028B000E0E012968D919C9113970097B9F52D91B8
:1028C0003C911197CD010296820F931F20914303F3
:1028D000309144032817390739F6309751F5109293
:1028E000460310924503B0934403A0934303BCCF27
:1028F000D383C28340815181840F951FC817D907A4
:1029000061F44E5F5F4F88819981480F591F518351
:1029100040838A819B81938382832115310509F04D
:10292000B0CFF0934603E09345039ECFFD01DC0159
:10293000C0CF13821282D7CFB0E0A0E0E2EAF4E188
:102940000C94DC118C01009751F4CB010E94771399
:102950008C01C801CDB7DEB7E0E10C94F811FC01A1
:10296000E60FF71F9C0122503109E217F30708F424
:102970009DC0D901CD91DC911197C617D70798F06A
:10298000C530D10530F3CE0104978617970708F3B9
:10299000C61BD70B2297C193D1936D937C93CF0124
:1029A0000E941314D6CF5B01AC1ABD0A4C018C0EE9
:1029B0009D1EA0914503B0914603512C412CF12C52
:1029C000E12C109731F580914303909144038815D1
:1029D000990509F05CC04616570608F058C080916A
:1029E000050190910601009741F48DB79EB7409183
:1029F000090150910A01841B950BE817F90708F0AB
:102A000055C0F0934403E0934303F901718360835D
:102A1000A0CF8D919C91119712966C90129713965E
:102A20007C901397A815B90559F56C0142E0C40EC6
:102A3000D11CCA14DB0420F1AC014A195B09DA018C
:102A40001296159780F06282738251834083D90178
:102A50006D937C93E114F10471F0D7011396FC930C
:102A6000EE93129776CF22968C0F9D1FF9019183DA
:102A70008083F301EFCFF0934603E093450369CFE2
:102A80004816590608F42C017D01D3019ACFCB01D9
:102A90000E9477137C01009749F0AE01B8010E94B3
:102AA0005915C8010E941314870153CF10E000E0AC
:102AB00050CFFB01DC0102C001900D92415050400B
:102AC000D8F70895FB01DC0101900D920020E1F799
:102AD0000895F894FFCF00409C4501000047038013
:102AE00000000000003D02BE02DE018A020F02ED7E
:102AF00001010200000000A005BE02F403F3036E12
:102B0000616E00696E66006F76660050656C697272
:102B1000676F210054656D70203E200054656D7014
:102B2000203C2000204300202020202020202020A6
:102B3000202020202020200044697374726962756F
:102B400069723A0044697374726962756369C3B3E8
:102B50006E0063616E63656C616461004675656CEF
:102B600020737570706C69656400416C6572746186
:102B700021004C612063616E746964616420736537
:102B80006C656363696F6E61207375706572612037
:102B90006C6120636170616369646164206469735E
:102BA000706F6E69626C6520656E20656C20746163
:102BB0006E7175652061207365722073756D696E25
:102BC0006973747261646F00646973706F6E6962B7
:102BD0006C653A2000436170616369646164004C14
:102BE000612063616E746964616420612073756D36
:102BF000696E69737472617220667565206D6F64A9
:102C000069666963616461003000206D6C004E6923
:102C100076656C3A200054656D703A200042696513
:102C20006E76656E69646F210073697374656D619A
:102C30002E2E2E00496E696369616E646F20656C8B
:022C4000000092
:107E0000112484B714BE81FFF0D085E080938100F7
:107E100082E08093C00088E18093C10086E0809377
:107E2000C20080E18093C4008EE0C9D0259A86E02C
:107E300020E33CEF91E0309385002093840096BBD3
:107E4000B09BFECF1D9AA8958150A9F7CC24DD24C4
:107E500088248394B5E0AB2EA1E19A2EF3E0BF2EE7
:107E6000A2D0813461F49FD0082FAFD0023811F036
:107E7000013811F484E001C083E08DD089C08234E0
:107E800011F484E103C0853419F485E0A6D080C0E4
:107E9000853579F488D0E82EFF2485D0082F10E0AE
:107EA000102F00270E291F29000F111F8ED06801E7
:107EB0006FC0863521F484E090D080E0DECF843638
:107EC00009F040C070D06FD0082F6DD080E0C81688
:107ED00080E7D80618F4F601B7BEE895C0E0D1E017
:107EE00062D089930C17E1F7F0E0CF16F0E7DF06D8
:107EF00018F0F601B7BEE89568D007B600FCFDCFD4
:107F0000A601A0E0B1E02C9130E011968C91119780
:107F100090E0982F8827822B932B1296FA010C0160
:107F200087BEE89511244E5F5F4FF1E0A038BF0790
:107F300051F7F601A7BEE89507B600FCFDCF97BE46
:107F4000E89526C08437B1F42ED02DD0F82E2BD052
:107F50003CD0F601EF2C8F010F5F1F4F84911BD097
:107F6000EA94F801C1F70894C11CD11CFA94CF0C13
:107F7000D11C0EC0853739F428D08EE10CD085E9AC
:107F80000AD08FE07ACF813511F488E018D01DD067
:107F900080E101D065CF982F8091C00085FFFCCF94
:107FA0009093C60008958091C00087FFFCCF809118
:107FB000C00084FD01C0A8958091C6000895E0E648
:107FC000F0E098E1908380830895EDDF803219F02E
:107FD00088E0F5DFFFCF84E1DECF1F93182FE3DFCA
:107FE0001150E9F7F2DF1F91089580E0E8DFEE27F6
:047FF000FF270994CA
:027FFE00040479
:00000001FF
