:100000000C9462000C948A000C948A000C948A0070
:100010000C948A000C948A000C948A000C948A0038
:100020000C948A000C948A000C948A000C948A0028
:100030000C948A000C948A000C948A000C948A0018
:100040000C94F8030C948A000C94C6030C94A0033F
:100050000C948A000C948A000C948A000C948A00F8
:100060000C948A000C948A00000000080002010031
:100070000003040700000000000000000000000072
:10008000250028002B0000000000240027002A0083
:1000900000000000230026002900040404040404D6
:1000A0000404020202020202030303030303010227
:1000B00004081020408001020408102001020408F6
:1000C0001020870411241FBECFEFD8E0DEBFCDBFC4
:1000D00022E0A2E5B1E001C01D92A030B207E1F735
:1000E00011E0A0E0B1E0E0E2F5E102C005900D9280
:1000F000A235B107D9F710E0C2E6D0E004C02197DD
:10010000FE010E949608C136D107C9F70E94C004BB
:100110000C948E0A0C940000AF92BF92CF92DF92A3
:10012000EF92FF920F931F93CF93DF936C017B01AC
:100130008B01040F151FEB015E01AE18BF08C0173D
:10014000D10759F06991D601ED91FC910190F081B0
:10015000E02DC6010995892B79F7C501DF91CF9173
:100160001F910F91FF90EF90DF90CF90BF90AF90D5
:100170000895FC01538D448D252F30E0842F90E0AD
:10018000821B930B541710F0CF9608950197089592
:10019000FC01918D828D981761F0A28DAE0FBF2F5B
:1001A000B11D5D968C91928D9F5F9F73928F90E0B1
:1001B00008958FEF9FEF0895FC01918D828D981720
:1001C00031F0828DE80FF11D858D90E008958FEF5D
:1001D0009FEF0895FC01918D228D892F90E0805C26
:1001E0009F4F821B91098F73992708958BE591E0AA
:1001F0000E94EA0021E0892B09F420E0822F089573
:1002000080E090E0892B29F00E94F60081110C9487
:1002100000000895FC01A48DA80FB92FB11DA35AA9
:10022000BF4F2C91848D90E001968F739927848F16
:10023000A689B7892C93A089B1898C918370806439
:100240008C93938D848D981306C00288F389E02DDA
:1002500080818F7D80830895EF92FF920F931F938B
:10026000CF93DF93EC0181E0888F9B8D8C8D981369
:100270001AC0E889F989808185FF15C09FB7F89475
:10028000EE89FF896083E889F989808183708064C1
:1002900080839FBF81E090E0DF91CF911F910F910C
:1002A000FF90EF900895F62E0B8D10E00F5F1F4F1B
:1002B0000F731127E02E8C8D8E110CC00FB607FC2A
:1002C000FACFE889F989808185FFF5CFCE010E94B8
:1002D0000A01F1CFEB8DEC0FFD2FF11DE35AFF4F1B
:1002E000F0829FB7F8940B8FEA89FB898081806246
:1002F000CFCFCF93DF93EC01888D8823B9F0AA8903
:10030000BB89E889F9898C9185FD03C0808186FDD0
:100310000DC00FB607FCF7CF8C9185FFF2CF80811F
:1003200085FFEDCFCE010E940A01E9CFDF91CF9189
:10033000089590E0FC01E859FF4F2491FC01E2553B
:10034000FF4F3491FC01E656FF4FE491EE23C9F0D4
:10035000222339F0233001F1A8F4213019F12230A1
:1003600029F1F0E0EE0FFF1FE458FF4FA591B49183
:100370008FB7F894EC91611126C030953E233C93E1
:100380008FBF08952730A9F02830C9F0243049F7ED
:10039000809180008F7D03C0809180008F77809353
:1003A0008000DFCF84B58F7784BDDBCF84B58F7DB0
:1003B000FBCF8091B0008F778093B000D2CF809137
:1003C000B0008F7DF9CF3E2BDACF3FB7F894809104
:1003D000570190915801A0915901B0915A0126B549
:1003E000A89B05C02F3F19F00196A11DB11D3FBF6D
:1003F000BA2FA92F982F8827BC01CD01620F711D3C
:10040000811D911D42E0660F771F881F991F4A9535
:10041000D1F708958F929F92AF92BF92CF92DF92C1
:10042000EF92FF924B015C010E94E5016B017C01A0
:100430000E94E5016C197D098E099F09683E734091
:1004400081059105A8F321E0821A9108A108B1085D
:1004500088EEC80E83E0D81EE11CF11C81149104C3
:10046000A104B10429F7FF90EF90DF90CF90BF90E7
:10047000AF909F908F900895FC0101900020E9F7C4
:100480003197AF01481B590BBC018BE591E00C94EF
:100490008C008F929F92AF92BF920F931F93CF9336
:1004A000DF93CDB7DEB7A1970FB6F894DEBF0FBECE
:1004B000CDBF19A2423008F44AE08E010F5D1F4FF4
:1004C000842E912CB12CA12CA50194010E945508D9
:1004D000E62FB901CA01EA30F4F4E05DD801EE93E9
:1004E0008D01232B242B252B79F790E080E01097AA
:1004F00019F0CD010E943C02A1960FB6F894DEBF20
:100500000FBECDBFDF91CF911F910F91BF90AF90E4
:100510009F908F900895E95CE1CFFC0180819181EB
:10052000009711F00C9438090895EF92FF920F9301
:100530001F93CF93DF93EC017B01FB01019000201F
:10054000E9F731978F01061B170B88819981009776
:1005500029F02A813B812017310788F4B8016F5FA9
:100560007F4F0E94C1090097B9F0998388831B834C
:100570000A832C813D81232B11F4FC0110821D8301
:100580000C83B70188819981DF91CF911F910F91E1
:10059000FF90EF900C94870A88819981009711F061
:1005A0000E943809198218821D821C821B821A82BD
:1005B000DF91CF911F910F91FF90EF9008958F924F
:1005C0009F92AF92BF92CF92DF92EF92FF926A0119
:1005D0007B01FC0144815581608171818BE591E053
:1005E0000E948C0088E191E00E943C02A7019601E4
:1005F000C701B6010E945008882381F08BE191E089
:100600000E943C0288E191E0FF90EF90DF90CF9054
:10061000BF90AF909F908F900C943C024601570181
:10062000E894B7F82FEF3FEF4FE75FE7C501B4015C
:100630000E94500881110DC02FEF3FEF4FE75FE799
:10064000C501B4010E944D0618161CF48FE191E01B
:10065000D7CF2FEF3FEF4FE75FE4C701B6010E940E
:100660004B0818161CF483E291E0CACF2FEF3FEF3E
:100670004FE75FECC701B6010E944D0687FDF3CF3F
:1006800020E030E0A901C701B6010E944D0687FFB6
:1006900009C06DE28BE591E00E942C01F7FAF0941D
:1006A000F7F8F0942AE037ED43EA5BE3C701B601BF
:1006B0000E94A9074B015C010E941C086B017C0190
:1006C0000E9452069B01AC01C501B4010E94A8071B
:1006D0004B015C014AE0C701B6010E9449026EE28B
:1006E0008BE591E00E942C0120E030E040E251E4F3
:1006F000C501B4010E94B3064B015C010E941C08B5
:100700006B01F12CE12C4AE0C701B6010E944902BD
:10071000C701B6010E9452069B01AC01C501B4019C
:100720000E94A80720E030E040E251E40E94B306B6
:100730000E941C0890E080E04AE00E94490262CFDB
:100740001F920F920FB60F9211242F933F934F9346
:100750005F936F937F938F939F93AF93BF93EF9329
:10076000FF938BE591E00E940A01FF91EF91BF9109
:10077000AF919F918F917F916F915F914F913F9139
:100780002F910F900FBE0F901F9018951F920F92F0
:100790000FB60F9211242F938F939F93EF93FF9394
:1007A000E0916B01F0916C018081E0917101F09119
:1007B000720182FD1BC09081809174018F5F8F73E5
:1007C00020917501821741F0E0917401F0E0E55A43
:1007D000FE4F958F80937401FF91EF919F918F91C0
:1007E0002F910F900FBE0F901F9018958081F4CF1E
:1007F0001F920F920FB60F9211242F933F938F9356
:100800009F93AF93BF938091530190915401A09116
:100810005501B09156013091520123E0230F2D373D
:1008200058F50196A11DB11D2093520180935301EB
:1008300090935401A0935501B093560180915701B4
:1008400090915801A0915901B0915A010196A11DB2
:10085000B11D8093570190935801A0935901B09313
:100860005A01BF91AF919F918F913F912F910F901E
:100870000FBE0F901F90189526E8230F0296A11D1A
:10088000B11DD2CFCF92DF92EF92FF920F931F93C1
:10089000E82FF92F05C0015011092109310961F133
:1008A000908196239417B9F305C0015011092109CD
:1008B000310911F1908196239413F7CFC12CD12CDB
:1008C000E12CF12C0AC08FEFC81AD80AE80AF80AFE
:1008D0000C151D052E053F0579F0808186238417B0
:1008E00091F36C2D7D2D8E2D9F2D1F910F91FF90DB
:1008F000EF90DF90CF90089560E070E080E090E0AE
:100900001F910F91FF90EF90DF90CF900895EBE54E
:10091000F1E01382128288EE93E0A0E0B0E08483DD
:100920009583A683B7838AE091E09183808385ECE9
:1009300090E09587848784EC90E09787868780ECA9
:1009400090E0918B808B81EC90E0938B828B82EC9A
:1009500090E0958B848B86EC90E0978B868B118E44
:10096000128E138E148E80E090E0A8E4B3E480939E
:10097000F8019093F901A093FA01B093FB01089557
:10098000CF93DF9300D000D000D0CDB7DEB77894FE
:1009900084B5826084BD84B5816084BD85B5826084
:1009A00085BD85B5816085BD80916E008160809335
:1009B0006E0010928100809181008260809381009E
:1009C00080918100816080938100809180008160AE
:1009D000809380008091B10084608093B100809109
:1009E000B00081608093B00080917A008460809331
:1009F0007A0080917A00826080937A0080917A00F8
:100A0000816080937A0080917A00806880937A0078
:100A10001092C100E0916B01F0916C0182E0808343
:100A2000E0916701F09168011082E0916901F09115
:100A30006A018FEC808310927301E0916F01F09155
:100A4000700186E08083E0916D01F0916E018081FC
:100A500080618083E0916D01F0916E0180818860FA
:100A60008083E0916D01F0916E01808180688083C8
:100A7000E0916D01F0916E0180818F7D8083E0ECCB
:100A8000F0E02491ECEAF0E08491882399F090E082
:100A9000880F991FFC01EA57FF4FA591B491FC0103
:100AA000E458FF4F859194918FB7F894EC91E22B25
:100AB000EC938FBF41EC242E40E0342EF1012491C1
:100AC0005DEA852E50E0952EF40184918823C9F0CB
:100AD00090E0880F991FFC01EA57FF4FA591B49150
:100AE000FC01E458FF4F459154913FB7F8949C9115
:100AF000822F809598239C93FA019081892380838B
:100B00003FBF9AE3C92ED12CE12CF12C20E0A22E7C
:100B100020E0B22E60E082E10E94990183E090E043
:100B20000197F1F761E082E10E94990183E290E090
:100B30000197F1F760E082E10E949901F10164916F
:100B4000F4018491E82FF0E0EE0FFF1FE057FF4F14
:100B50008591949100E412E42FE030E0462F0E944A
:100B600042042B013C01411451046104710439F029
:100B7000FFEF4F1A5F0A6F0A7F0A8FE078221A820E
:100B800019821C821B821E821D8267E271E0CE01E7
:100B900001960E949502C301B2010E945406AB0166
:100BA000BC01CE0101960E94DF02CE0101960E9497
:100BB0008D0264EF71E080E090E00E940A02C301C0
:100BC000B201A70196010E947708CA01B9010E94EB
:100BD000540620E030E040E251E40E94A8070E9461
:100BE00015080E9454062B013C011A8219821C82AE
:100BF0001B821E821D8263E371E0CE0101960E947A
:100C00009502B301A201CE0101960E94DF02CE013E
:100C100001960E948D0264EF71E080E090E00E94F6
:100C20000A022091F8013091F9014091FA015091A6
:100C3000FB01C301B2010E94B3062B013C011A82E1
:100C400019821C821B821E821D8263E471E0CE0128
:100C500001960E949502B301A201CE0101960E9465
:100C6000DF02CE0101960E948D0264EF71E080E008
:100C700090E00E940A0264E670E080E090E00E944A
:100C80000A02A114B10409F445CF0E94F60088239A
:100C900009F440CF0E9400003DCF0E948F0608F467
:100CA00081E00895E89409C097FB3EF49095809503
:100CB000709561957F4F8F4F9F4F9923A9F0F92F22
:100CC00096E9BB279395F695879577956795B795A0
:100CD000F111F8CFFAF4BB0F11F460FF1BC06F5F86
:100CE0007F4F8F4F9F4F16C0882311F096E911C098
:100CF000772321F09EE8872F762F05C0662371F0B9
:100D000096E8862F70E060E02AF09A95660F771FCC
:100D1000881FDAF7880F9695879597F90895990FA8
:100D20000008550FAA0BE0E8FEEF16161706E807B5
:100D3000F907C0F012161306E407F50798F0621BD6
:100D4000730B840B950B39F40A2661F0232B242BAB
:100D5000252B21F408950A2609F4A140A6958FEFCA
:100D6000811D811D08950E94C6060C9437070E94BC
:100D7000290738F00E94300720F0952311F00C94D9
:100D800020070C94260711240C946B070E94480737
:100D900070F3959FC1F3950F50E0551F629FF001CE
:100DA000729FBB27F00DB11D639FAA27F00DB11DE7
:100DB000AA1F649F6627B00DA11D661F829F222770
:100DC000B00DA11D621F739FB00DA11D621F839FF7
:100DD000A00D611D221F749F3327A00D611D231FCD
:100DE000849F600D211D822F762F6A2F11249F571B
:100DF00050409AF0F1F088234AF0EE0FFF1FBB1F1E
:100E0000661F771F881F91505040A9F79E3F5105DC
:100E100080F00C9420070C946B075F3FE4F3983E3E
:100E2000D4F3869577956795B795F795E7959F5F86
:100E3000C1F7FE2B880F911D9695879597F9089518
:100E400097F99F6780E870E060E008959FEF80EC7D
:100E5000089500240A941616170618060906089520
:100E600000240A9412161306140605060895092E86
:100E70000394000C11F4882352F0BB0F40F4BF2BF5
:100E800011F460FF04C06F5F7F4F8F4F9F4F089535
:100E900057FD9058440F551F59F05F3F71F047952B
:100EA000880F97FB991F61F09F3F79F08795089510
:100EB000121613061406551FF2CF4695F1DF08C02F
:100EC000161617061806991FF1CF8695710561054C
:100ED00008940895E894BB2766277727CB0197F9F4
:100EE00008952F923F924F925F926F927F928F92CE
:100EF0009F92AF92BF92CF92DF92EF92FF920F93A9
:100F00001F93CF93DF93CDB7DEB7CA1BDB0B0FB6B2
:100F1000F894DEBF0FBECDBF09942A88398848886F
:100F20005F846E847D848C849B84AA84B984C88405
:100F3000DF80EE80FD800C811B81AA81B981CE0FFC
:100F4000D11D0FB6F894DEBF0FBECDBFED010895E1
:100F50005058BB27AA270E94C0070C9437070E944D
:100F6000290738F00E94300720F039F49F3F19F428
:100F700026F40C9426070EF4E095E7FB0C9420076A
:100F8000E92F0E94480758F3BA17620773078407CE
:100F9000950720F079F4A6F50C946A070EF4E09515
:100FA0000B2EBA2FA02D0B01B90190010C01CA0123
:100FB000A0011124FF27591B99F0593F50F4503ECE
:100FC00068F11A16F040A22F232F342F4427585FC0
:100FD000F3CF469537952795A795F0405395C9F7D8
:100FE0007EF41F16BA0B620B730B840BBAF0915090
:100FF000A1F0FF0FBB1F661F771F881FC2F70EC02F
:10100000BA0F621F731F841F48F487957795679501
:10101000B795F7959E3F08F0B0CF9395880F08F0ED
:101020009927EE0F9795879508950E941C0868945C
:10103000B1110C946B0708950E94500788F09F57D8
:1010400098F0B92F9927B751B0F0E1F0660F771FEC
:10105000881F991F1AF0BA95C9F714C0B13091F0E2
:101060000E946A07B1E008950C946A07672F782FF1
:101070008827B85F39F0B93FCCF3869577956795A7
:10108000B395D9F73EF490958095709561957F4F13
:101090008F4F9F4F08950E948F0608F48FEF089599
:1010A0000E948F06880B990B0895A1E21A2EAA1BA5
:1010B000BB1BFD010DC0AA1FBB1FEE1FFF1FA21708
:1010C000B307E407F50720F0A21BB30BE40BF50B05
:1010D000661F771F881F991F1A9469F7609570958E
:1010E000809590959B01AC01BD01CF010895052E1F
:1010F00097FB1EF400940E948E0857FD07D00E94B3
:10110000550807FC03D04EF40C948E08509540957A
:10111000309521953F4F4F4F5F4F089590958095A3
:10112000709561957F4F8F4F9F4F0895EE0FFF1F72
:101130000590F491E02D09940F931F93CF93DF93C3
:101140008230910510F482E090E0E091FE01F09190
:10115000FF0130E020E0B0E0A0E0309799F42115E5
:10116000310509F44AC0281B390B24303105D8F564
:101170008A819B816115710589F1FB0193838283CB
:10118000FE0111C040815181028113814817590726
:10119000E0F04817590799F4109761F012960C93F4
:1011A000129713961C933296CF01DF91CF911F9126
:1011B0000F9108950093FE011093FF01F4CF2115C4
:1011C000310551F04217530738F0A901DB019A01AC
:1011D000BD01DF01F801C1CFEF01F9CF9093FF010D
:1011E0008093FE01CDCFFE01E20FF31F8193919317
:1011F0002250310939832883D7CF2091FC013091C7
:10120000FD01232B41F42091020130910301309321
:10121000FD012093FC012091000130910101211575
:10122000310541F42DB73EB74091040150910501BD
:10123000241B350BE091FC01F091FD01E217F3074F
:10124000A0F42E1B3F0B2817390778F0AC014E5F36
:101250005F4F2417350748F04E0F5F1F5093FD0175
:101260004093FC01819391939FCFF0E0E0E09CCF0D
:10127000CF93DF930097E9F0FC013297138212823B
:10128000A091FE01B091FF01ED0130E020E0109748
:10129000A1F420813181820F931F2091FC013091B4
:1012A000FD012817390709F061C0F093FD01E093B3
:1012B000FC01DF91CF910895EA01CE17DF07E8F531
:1012C0004A815B819E0141155105B1F7E901FB831C
:1012D000EA8349915991C40FD51FEC17FD0761F4BA
:1012E000808191810296840F951FE90199838883FB
:1012F000828193819B838A83F0E0E0E012968D9156
:101300009C9113970097B9F52D913C911197CD01C0
:101310000296820F931F2091FC013091FD01281746
:10132000390739F6309751F51092FF011092FE01FE
:10133000B093FD01A093FC01BCCFD383C283408155
:101340005181840F951FC817D90761F44E5F5F4F15
:1013500088819981480F591F518340838A819B81DD
:10136000938382832115310509F0B0CFF093FF01FB
:10137000E093FE019ECFFD01DC01C0CF13821282FB
:10138000D7CFB0E0A0E0E7ECF9E00C9473078C0154
:10139000009751F4CB010E949C088C01C801CDB785
:1013A000DEB7E0E10C948F07FC01E60FF71F9C010C
:1013B00022503109E217F30708F49DC0D901CD91FD
:1013C000DC911197C617D70798F0C530D10530F3D7
:1013D000CE0104978617970708F3C61BD70B2297F1
:1013E000C193D1936D937C93CF010E943809D6CFDE
:1013F0005B01AC1ABD0A4C018C0E9D1EA091FE0132
:10140000B091FF01512C412CF12CE12C109731F5BA
:101410008091FC019091FD018815990509F05CC04F
:101420004616570608F058C08091000190910101BE
:10143000009741F48DB79EB740910401509105018A
:10144000841B950BE817F90708F055C0F093FD01D0
:10145000E093FC01F90171836083A0CF8D919C9191
:10146000119712966C90129713967C901397A8156B
:10147000B90559F56C0142E0C40ED11CCA14DB0455
:1014800020F1AC014A195B09DA011296159780F038
:101490006282738251834083D9016D937C93E114FE
:1014A000F10471F0D7011396FC93EE93129776CF67
:1014B00022968C0F9D1FF90191838083F301EFCF5A
:1014C000F093FF01E093FE0169CF4816590608F436
:1014D0002C017D01D3019ACFCB010E949C087C0195
:1014E000009749F0AE01B8010E947E0AC8010E942F
:1014F0003809870153CF10E000E050CFFB01DC0139
:1015000002C001900D9241505040D8F70895FB0160
:10151000DC0101900D920020E1F70895F894FFCFCF
:10152000000000028000000000002C018C00B900C7
:101530007901EA00C800DC000D0A006E616E0069E6
:101540006E66006F7666004563686F2074696D652E
:101550003A20004675656C2044697374616E63655A
:101560003A20004675656C20766F6C756D653A2083
:02157000000079
:00000001FF
